:100000000C94DF000C9407010C9407010C94070179
:100010000C9407010C9407010C9407010C94070140
:100020000C9407010C9407010C9407010C94070130
:100030000C9407010C9407010C9407010C94070120
:100040000C943D050C9407010C9407010C940701D6
:100050000C9407010C9407010C9407010C94070100
:100060000C9407010C940701000000080002010035
:100070000003040700000000000000000102040863
:100080001020408001020408102001020408102002
:10009000040404040404040402020202020203032E
:1000A00003030303000000002300260029000000D2
:1000B0000000250028002B0000000000240027007D
:1000C0002A0000407A10F35A00A0724E180900105E
:1000D000A5D4E80000E87648170000E40B540200BD
:1000E00000CA9A3B000000E1F505000080969800E8
:1000F000000040420F000000A08601000000102711
:1001000000000000E80300000000640000000000A0
:100110000A00000000000100000000002C76D888D2
:10012000DC674F0823DFC1DFAE59E1B1B796E5E3E5
:10013000E453C63AE651997696E8E6C28426EB89FE
:100140008C9B62ED407C6FFCEFBC9C9F40F2BAA59B
:100150006FA5F490055A2AF75C936B6CF9676DC133
:100160001BFCE0E40D47FEF520E6B500D0ED902E37
:100170000300943577050080841E080000204E0A95
:10018000000000C80C333333330F986E12831141D3
:10019000EF8D2114893BE65516CFFEE6DB18D1849E
:1001A0004B381BF77C1D901DA4BBE42420328472C5
:1001B0005E228100C9F124ECA1E53D27160211243D
:1001C0001FBECFEFD8E0DEBFCDBF11E0A0E0B1E0B1
:1001D000E4E6FCE102C005900D92A832B107D9F720
:1001E00021E0A8E2B1E001C01D92AB35B207E1F712
:1001F00011E0CEEBD1E004C02297FE010E943D0940
:10020000CC3BD107C9F70E942E070C94300E0C94FA
:10021000000060E081E00E94950660E088E00E94B6
:10022000950620E042E060E186E391E00C9408034B
:100230008F929F92AF92BF92EF92FF920F931F9374
:10024000CF93DF93CDB7DEB762970FB6F894DEBFDA
:100250000FBECDBF88E00E9404078130910579F47C
:100260002091340130913501232B29F490933501ED
:100270008093340104C0109235011092340181E062
:100280000E944F067C0186E391E00E94E70240E075
:1002900060E086E391E00E94EE028091340190914B
:1002A0003501892B19F407E011E002C00BE011E0E1
:1002B000609130017091310180E090E00E94360839
:1002C00020912A0130912B0140912C0150912D0158
:1002D0000E94A2070E940A084B015C01809128013C
:1002E0000E944F069C01289DC001299D900D389DBC
:1002F000900D112461E070E00090320102C0660FA1
:10030000771F0A94E2F7615071090E94270980E083
:1003100090E00E943608FB012091340130913501B4
:10032000232B69F026E636E646EE5FE30E94C4081A
:1003300020E030E040E052E40E943E07FB0122E072
:10034000AF01BC01CE0107960E94B404BE01695FF3
:100350007F4FCE0101960E946704B801CE0101963D
:100360000E942305BC01CE010D960E946704CE01B8
:1003700001960E94CC03CE0107960E94CC036FE049
:1003800071E0CE0101960E943A04BE01635F7F4F87
:10039000CE0101960E941005BC0186E391E00E9407
:1003A0004106CE0101960E94CC03CE010D960E941B
:1003B000CC0341E060E086E391E00E94EE024AE077
:1003C000B701CE0107960E94880467E171E0CE0173
:1003D00001960E943A04BE01695F7F4FCE010196EB
:1003E0000E941005BC0186E391E00E944106CE0107
:1003F00001960E94CC03CE0107960E94CC0364EFC5
:1004000071E080E090E00E94AA0562960FB6F89431
:10041000DEBF0FBECDBFDF91CF911F910F91FF9037
:10042000EF90BF90AF909F908F900895CF92EF92F2
:100430000F9382E0C82E93E0E92E04E025E04BE024
:100440006CE086E391E00E94A603109229011092CD
:1004500028018AE097EDA3E2BCE380932A01909300
:100460002B01A0932C01B0932D0186E990E090938D
:100470002F0180932E0185E090E0909331018093CD
:1004800030018AE090E09093330180933201109222
:1004900035011092340160E080E00F91EF90CF9031
:1004A0000C949506CF93DF93EC0160E08E810E945F
:1004B000CE0681E090E00E94D20561E08E810E942C
:1004C000CE0681E090E00E94D20560E08E810E941D
:1004D000CE0684E690E0DF91CF910C94D205EF92A6
:1004E000FF920F931F93CF93DF938C01C0E0D0E076
:1004F000E62EF12CB7010C2E02C0759567950A9473
:10050000E2F76170F801EC0FFD1F87810E94CE06B3
:100510002196C430D10571F7C801DF91CF911F91A9
:100520000F91FF90EF900C945202EF92FF920F9375
:100530001F93CF93DF938C01C0E0D0E0E62EF12C27
:10054000B7010C2E02C0759567950A94E2F76170A9
:10055000F801EC0FFD1F87810E94CE062196C8305E
:10056000D10571F7C801DF91CF911F910F91FF90D5
:10057000EF900C9452021F93CF93DF93EC01162F50
:10058000642F8C810E94CE068D818F3F19F060E030
:100590000E94CE068F85612F84FF06C0CE01DF91B9
:1005A000CF911F910C94950270E084E0759567954A
:1005B0008A95E1F7CE010E946F02612FCE01DF9193
:1005C000CF911F910C946F0240E00C94BB0261E04C
:1005D0000E94E40280ED97E00C94D205443008F0CC
:1005E00043E0FC012389421710F04FEF420FFC015A
:1005F000E40FF11D2489260F2068622F0C94E40279
:10060000FC016089262F2460208B6C600C94E4022E
:100610000F931F93CF93DF93EC01423018F08F8537
:1006200088608F874B8B1C8A80E48D8B6E8B70E08B
:10063000605C7F4F6F8B222329F0413019F48F8546
:1006400084608F8761E08C810E9495068D818F3F49
:1006500019F061E00E94950661E08E810E94950686
:1006600000E010E08F8584FF03C088E090E002C0C6
:1006700084E090E00817190754F4FE01E00FF11F21
:1006800061E087810E9495060F5F1F4FEBCF80E5E9
:1006900093EC0E94D20560E08C810E94CE0660E05F
:1006A0008E810E94CE068D818F3F19F060E00E94FE
:1006B000CE066F8564FD1DC063E0CE010E946F020F
:1006C00084E991E10E94D20563E0CE010E946F02AD
:1006D00084E991E10E94D20563E0CE010E946F029D
:1006E00086E990E00E94D20562E0CE010E946F028E
:1006F00016C06062CE010E94E40284E991E10E948A
:10070000D2056F856062CE010E94E40286E990E026
:100710000E94D2056F856062CE010E94E4026F855F
:100720006062CE010E94E40284E0888BCE010E94C8
:100730000003CE010E94E70282E0898B66E0CE01D1
:10074000DF91CF911F910F910C94E402CF92EF9221
:100750000F93FC011382128283E291E091838083E4
:1007600064838FEF8583468327830087E186C28673
:100770001386148615861686178620E041E060E110
:10078000CF010F91EF90CF900C94080341E00E94AD
:10079000BB0281E090E00895FC01808191810C947E
:1007A000FA09CF93DF93EC0188819981009711F0CA
:1007B0000E94FA09198218821D821C821B821A82E9
:1007C000DF91CF9108950F931F93CF93DF93EC01A7
:1007D0008B016F5F7F4F888199810E94890A009702
:1007E00031F0998388831B830A8381E001C080E014
:1007F000DF91CF911F910F910895CF93DF93EC017B
:1008000088819981892B29F08A819B818617970796
:1008100060F4CE010E94E303882341F08C819D8126
:10082000892B19F4E881F981108281E0DF91CF9161
:100830000895EF92FF920F931F93CF93DF93EC01F4
:100840007B018A01BA010E94FD03811104C0CE011F
:100850000E94D10307C01D830C83B7018881998151
:100860000E945C0BCE01DF91CF911F910F91FF9001
:10087000EF900895FC01118210821382128215827A
:1008800014826115710559F0FB0101900020E9F710
:10089000AF0141505109461B570B0C9419040895A0
:1008A000CF93DF93EC01FB018617970761F060811E
:1008B00071816115710529F0448155810E941904E7
:1008C00002C00E94D103CE01DF91CF910895FC01B7
:1008D0001182108213821282158214820C945004A9
:1008E000CF93DF93EC016115710561F0FB0101907D
:1008F0000020E9F7AF0141505109461B570B0E94F8
:10090000190402C00E94D103CE01DF91CF91089556
:100910000F931F93CF93DF93CDB7DEB762970FB6D8
:10092000F894DEBF0FBECDBF8C01CB01F801118260
:100930001082138212821582148250E0BE016F5F12
:100940007F4F0E94630BBE016F5F7F4FC8010E9403
:10095000700462960FB6F894DEBF0FBECDBFDF9174
:10096000CF911F910F910895EF92FF920F931F93D4
:10097000CF93DF93CDB7DEB7A1970FB6F894DEBF64
:100980000FBECDBF7C01CB01BA01F70111821082ED
:10099000138212821582148242E0420F8E010F5F91
:1009A0001F4F0E944109BC01C7010E947004A1961B
:1009B0000FB6F894DEBF0FBECDBFDF91CF911F9170
:1009C0000F91FF90EF900895EF92FF920F931F9376
:1009D000CF93DF93EC017B010C811D8161157105C3
:1009E00011F480E016C04115510591F0040F151F58
:1009F000B8010E94FD038823A1F3288139818C81ED
:100A00009D81B701820F931F0E945C0B1D830C8395
:100A100081E0DF91CF911F910F91FF90EF900895AA
:100A2000CF93DF93EC01FB0144815581608171819B
:100A30000E94E404811103C0CE010E94D103CE01C3
:100A4000DF91CF910895CF93DF93EC01611571058C
:100A500069F0FB0101900020E9F7AF014150510915
:100A6000461B570B0E94E404811103C0CE010E9473
:100A7000D103CE01DF91CF9108951F920F920FB64F
:100A80000F9211242F933F938F939F93AF93BF9314
:100A900080914F0190915001A0915101B09152016C
:100AA00030914E0123E0230F2D3720F40196A11D34
:100AB000B11D05C026E8230F0296A11DB11D20938C
:100AC0004E0180934F0190935001A0935101B09338
:100AD00052018091530190915401A0915501B09120
:100AE00056010196A11DB11D8093530190935401AD
:100AF000A0935501B0935601BF91AF919F918F91F3
:100B00003F912F910F900FBE0F901F9018953FB7F8
:100B1000F8948091530190915401A0915501B091A6
:100B2000560126B5A89B05C02F3F19F00196A11DBF
:100B3000B11D3FBF6627782F892F9A2F620F711D35
:100B4000811D911D42E0660F771F881F991F4A95EE
:100B5000D1F70895CF92DF92EF92FF92CF93DF9378
:100B60006B017C010E948705EB01C114D104E104F3
:100B7000F10489F00E9418060E9487056C1B7D0B0A
:100B8000683E734090F381E0C81AD108E108F1088B
:100B9000C851DC4FEACFDF91CF91FF90EF90DF900B
:100BA000CF9008958230910538F0880F991F880FF3
:100BB000991F05970197F1F70895789484B582609D
:100BC00084BD84B5816084BD85B5826085BD85B5F1
:100BD000816085BDEEE6F0E0808181608083E1E8A0
:100BE000F0E01082808182608083808181608083D8
:100BF000E0E8F0E0808181608083E1EBF0E08081DB
:100C000084608083E0EBF0E0808181608083EAE7AC
:100C1000F0E0808184608083808182608083808135
:100C2000816080838081806880831092C1000895F4
:100C30000895CF92DF92EF92FF920F931F93CF937D
:100C4000DF937C016A01EB0100E010E00C151D054B
:100C500071F06991D701ED91FC910190F081E02D47
:100C6000C7010995892B19F00F5F1F4FEFCFC801FE
:100C7000DF91CF911F910F91FF90EF90DF90CF9078
:100C80000895DC01ED91FC91DB0114964D915C918E
:100C900015976D917C910280F381E02D09948E303F
:100CA00008F08E5087702091060190E4299F9001F2
:100CB0001124822B80937C0080917A008064809341
:100CC0007A0080917A0086FDFCCF80917800209197
:100CD000790090E0922B0895833081F028F48130E0
:100CE00099F08230A1F008958730A9F08830B9F0EA
:100CF0008430D1F4809180008F7D03C0809180008A
:100D00008F7780938000089584B58F7702C084B573
:100D10008F7D84BD08958091B0008F7703C080914E
:100D2000B0008F7D8093B0000895CF93DF9390E063
:100D3000FC01E458FF4F2491FC01E057FF4F8491E0
:100D4000882349F190E0880F991FFC01E854FF4F78
:100D5000A591B49182559F4FFC01C591D4919FB745
:100D6000611108C0F8948C91209582238C9388811E
:100D700082230AC0623051F4F8948C91322F30955E
:100D800083238C938881822B888304C0F8948C9170
:100D9000822B8C939FBFDF91CF9108950F931F9368
:100DA000CF93DF931F92CDB7DEB7282F30E0F90144
:100DB000E859FF4F8491F901E458FF4F1491F9016C
:100DC000E057FF4F04910023C9F0882321F0698385
:100DD0000E946C066981E02FF0E0EE0FFF1FE255E4
:100DE000FF4FA591B4919FB7F8948C91611103C006
:100DF0001095812301C0812B8C939FBF0F90DF91B1
:100E0000CF911F910F910895CF93DF93282F30E05A
:100E1000F901E859FF4F8491F901E458FF4FD4914B
:100E2000F901E057FF4FC491CC2391F081110E944A
:100E30006C06EC2FF0E0EE0FFF1FEC55FF4FA59175
:100E4000B4912C912D2381E090E021F480E002C048
:100E500080E090E0DF91CF91089508950E94DD0534
:100E60000E942D070E940901C0E0D0E00E941801F5
:100E70002097E1F30E940000F9CF5058BB27AA2722
:100E80000ED048C139D130F03ED120F031F49F3F2F
:100E900011F41EF42EC10EF4E095E7FB24C1E92FF6
:100EA0004AD180F3BA17620773078407950718F0D1
:100EB00071F49EF562C10EF4E0950B2EBA2FA02DB1
:100EC0000B01B90190010C01CA01A0011124FF27F7
:100ED000591B99F0593F50F4503E68F11A16F040F2
:100EE000A22F232F342F4427585FF3CF46953795F1
:100EF0002795A795F0405395C9F77EF41F16BA0BB6
:100F0000620B730B840BBAF09150A1F0FF0FBB1F63
:100F1000661F771F881FC2F70EC0BA0F621F731FAC
:100F2000841F48F4879577956795B795F7959E3F09
:100F300008F0B3CF9395880F08F09927EE0F979597
:100F4000879508950CD0E6C0DED040F0D5D030F0C3
:100F500021F45F3F19F0C7C0511110C1CAC0EBD0D6
:100F600098F39923C9F35523B1F3951B550BBB2770
:100F7000AA2762177307840738F09F5F5F4F220F1D
:100F8000331F441FAA1FA9F333D00E2E3AF0E0E816
:100F900030D091505040E695001CCAF729D0FE2F62
:100FA00027D0660F771F881FBB1F261737074807F4
:100FB000AB07B0E809F0BB0B802DBF01FF279358AA
:100FC0005F4F2AF09E3F510568F08DC0D7C05F3F4C
:100FD000ECF3983EDCF3869577956795B795F79592
:100FE0009F5FC9F7880F911D9695879597F908958A
:100FF000E1E0660F771F881FBB1F62177307840726
:10100000BA0720F0621B730B840BBA0BEE1F88F734
:10101000E095089598D088F09F5790F0B92F9927C0
:10102000B751A0F0D1F0660F771F881F991F1AF0F3
:10103000BA95C9F712C0B13081F09FD0B1E00895E0
:101040009CC0672F782F8827B85F39F0B93FCCF361
:10105000869577956795B395D9F73EF490958095E9
:10106000709561957F4F8F4F9F4F0895E89409C009
:1010700097FB3EF490958095709561957F4F8F4FCB
:101080009F4F9923A9F0F92F96E9BB279395F695E1
:10109000879577956795B795F111F8CFFAF4BB0F5F
:1010A00011F460FF1BC06F5F7F4F8F4F9F4F16C0C3
:1010B000882311F096E911C0772321F09EE8872F4D
:1010C000762F05C0662371F096E8862F70E060E009
:1010D0002AF09A95660F771F881FDAF7880F969582
:1010E000879597F9089597F99F6780E870E060E029
:1010F00008959FEF80EC089500240A9416161706B1
:1011000018060906089500240A94121613061406F8
:1011100005060895092E0394000C11F4882352F05B
:10112000BB0F40F4BF2B11F460FF04C06F5F7F4F13
:101130008F4F9F4F089557FD9058440F551F59F0FA
:101140005F3F71F04795880F97FB991F61F09F3FB4
:1011500079F087950895121613061406551FF2CFDD
:101160004695F1DF08C0161617061806991FF1CF2D
:1011700086957105610508940895E894BB27662754
:101180007727CB0197F908950BD0C4CFB5DF28F0AE
:10119000BADF18F0952309F0A6CFABCF1124EECF1C
:1011A000CADFA0F3959FD1F3950F50E0551F629FC2
:1011B000F001729FBB27F00DB11D639FAA27F00DB0
:1011C000B11DAA1F649F6627B00DA11D661F829FD7
:1011D0002227B00DA11D621F739FB00DA11D621FBC
:1011E000839FA00D611D221F749F3327A00D611DD9
:1011F000231F849F600D211D822F762F6A2F1124BB
:101200009F5750408AF0E1F088234AF0EE0FFF1F0D
:10121000BB1F661F771F881F91505040A9F79E3F44
:10122000510570F060CFAACF5F3FECF3983EDCF33E
:10123000869577956795B795F795E7959F5FC1F781
:10124000FE2B880F911D9695879597F90895AA1BF7
:10125000BB1B51E107C0AA1FBB1FA617B70710F0A1
:10126000A61BB70B881F991F5A95A9F780959095D3
:10127000BC01CD010895EE0FFF1F0590F491E02D04
:101280000994EF920F931F93CF93DF93E80147FFE9
:1012900002C034E101C034E0E42FFF27E7FDF09500
:1012A000F7FF03C0F195E195F109E32E022F2E2FF0
:1012B000AE010E94930BCE01DF91CF911F910F9150
:1012C000EF900895CF93DF938230910510F482E080
:1012D00090E0E0915901F0915A0120E030E0A0E067
:1012E000B0E0309739F14081518148175907B8F083
:1012F0004817590771F482819381109729F013964A
:101300009C938E9312972CC090935A01809359010D
:1013100027C02115310531F04217530718F0A901F4
:10132000DB0101C0EF019A01BD01DF010280F38101
:10133000E02DD7CF21153105F9F0281B390B2430CA
:10134000310580F48A819B816115710521F0FB01D3
:101350009383828304C090935A0180935901FE01C4
:10136000329644C0FE01E20FF31F81939193225005
:101370003109398328833AC02091570130915801AF
:10138000232B41F420910201309103013093580145
:101390002093570120910001309101012115310561
:1013A00041F42DB73EB74091040150910501241B33
:1013B000350BE0915701F0915801E217F307A0F4C3
:1013C0002E1B3F0B2817390778F0AC014E5F5F4F9B
:1013D0002417350748F04E0F5F1F50935801409374
:1013E00057018193919302C0E0E0F0E0CF01DF91DB
:1013F000CF910895CF93DF93009709F487C0FC0144
:10140000329713821282C0915901D0915A012097CC
:1014100081F420813181280F391F809157019091EB
:1014200058018217930779F5F0935801E09357011B
:101430006DC0DE0120E030E0AE17BF0750F4129619
:101440004D915C9113979D014115510509F1DA0108
:10145000F3CFB383A28340815181840F951F8A17F4
:101460009B0771F48D919C911197840F951F0296A3
:101470009183808312968D919C911397938382839D
:101480002115310529F4F0935A01E09359013EC02A
:10149000D9011396FC93EE9312974D915D91A40F91
:1014A000B51FEA17FB0779F480819181840F951F9E
:1014B0000296D90111969C938E9382819381139603
:1014C0009C938E931297E0E0F0E08A819B810097D5
:1014D00019F0FE01EC01F9CFCE0102962881398185
:1014E000820F931F20915701309158012817390717
:1014F00069F4309729F410925A011092590102C0F0
:1015000013821282D0935801C0935701DF91CF917B
:101510000895A0E0B0E0EFE8FAE00C94FD0DEC01D6
:10152000CB01209719F40E946209B8C0FE01E60FB2
:10153000F71F9E0122503109E217F30708F4ACC0EF
:10154000D9010D911C91119706171707B8F00530B6
:10155000110508F49FC0A8014450510946175707C8
:1015600008F498C002501109061B170B0193119340
:101570006D937C93CF010E94FA098CC05B01A01A85
:10158000B10A4E01800E911EA0915901B0915A01ED
:10159000612C712C60E070E0109709F449C0A81527
:1015A000B905C9F5ED90FC901197670142E0C40EB2
:1015B000D11CCA14DB0478F147018A189B08640126
:1015C00042E0C40ED11C1296BC9012971396AC91B7
:1015D000B5E0CB16D10440F0B282A3839182808221
:1015E000D9018D939C9309C00E5F1F4F0E0D1F1DD7
:1015F000F90111830083EB2DFA2F6115710531F08C
:10160000DB011396FC93EE93129744C0F0935A01BA
:10161000E09359013FC06D917C9111976616770652
:1016200008F43B01BD0112960D90BC91A02DB4CFE2
:10163000609157017091580168157905E9F46816B1
:101640007906D0F4409100015091010141155105F6
:1016500041F44DB75EB76091040170910501461BDE
:10166000570BE417F507C0F4F0935801E0935701C6
:10167000F901918380830EC00E9462097C0100976A
:1016800059F0A801BE010E94530BCE010E94FA0935
:10169000C70104C0CE0102C080E090E0CDB7DEB744
:1016A000EEE00C94190EFB01DC0102C001900D92DA
:1016B00041505040D8F70895FB01DC0101900D9294
:1016C0000020E1F708954532510520F4423010F032
:1016D0000C946E0BFB011082CB010895BB274A309E
:1016E00031F4992322F4BDE2909581959F4F0C949B
:1016F0007A0BBB27FB015527AA27880F991FAA1F22
:10170000A41710F0A41B83955051B9F7A05DAA331C
:1017100008F0A95DA193009779F7B111B1931192E7
:10172000CB010C94E90D6F927F929F92AF92BF9282
:10173000CF92DF92EF92FF920F931F93CF93DF939D
:10174000CDB7DEB729970FB6F894DEBF0FBECDBF79
:101750006A01B22E102F0C3320F4FF24F394F00E04
:1017600002C04CE3F42E0F2D27E0AE014F5F5F4F18
:101770000E94110D7981272F2970213031F0E1FC71
:1017800006C0E0FC06C060E005C06DE203C06BE28D
:1017900001C060E2AE2DA07173FF36C0662311F068
:1017A00084E001C083E08B1510F4B81A01C0B12C9D
:1017B000A1110BC0F6018B2D90E2882319F09193B3
:1017C0008150FBCFCB0CD11CB12C662331F0F6013C
:1017D000608396012F5F3F4F6901C6010396E2FEC9
:1017E00005C02EE4F601208331E404C02EE6F601A4
:1017F000208331E631832283FC012B2D30E222232A
:10180000F1F131932150FBCF72FF40C0662311F0FC
:1018100084E001C083E08B1510F4B81A01C0B12C2C
:10182000A1110BC0F6018B2D90E2882319F0919342
:101830008150FBCFCB0CD11CB12C662331F0F601CB
:10184000608396012F5F3F4F6901C6010396E2FE58
:1018500007C029E4F60120832EE4218326E406C094
:1018600029E6F60120832EE6218326E62283FC0169
:101870002B2D30E2222319F031932150FBCFFC01B4
:10188000EB0DF11D10828EEF9FEFB7C0B1E061113B
:1018900001C0B0E04B2F50E01816190624F49C014B
:1018A0002F5F3F4F02C021E030E0240F351F11238E
:1018B00029F0412F50E04F5F5F4F02C040E050E001
:1018C000420F531F2B2D30E04217530714F4B41A64
:1018D00001C0B12C2E2D287159F4F6012B2D30E2C8
:1018E000222319F031932150FBCFCB0CD11CB12C0A
:1018F000BB2331F0F601608396012F5F3F4F6901F2
:10190000A1110BC0F6012B2D30E3222319F03193E6
:101910002150FBCFCB0CD11CB12CF80E0A81372FF4
:101920003071A32E74FF03C0013309F4FA941F141D
:101930002CF42F2D293018F028E001C021E0682F69
:10194000392F97FF02C060E030E0462F532F612C03
:10195000712C3EE2932EBC01621B71099B01DC01DC
:10196000A41BB50BE1E0F0E0EC0FFD1FAE0FBF1FB5
:10197000E12EF12CF194E194F1084F3FFFEF5F0766
:1019800031F4F6019082B6016F5F7F4F6B018417CF
:1019900095074CF02417350734F4BD01660D771D0B
:1019A000FB01118101C010E341505109FFEF6F1A93
:1019B0007F0AB6016F5F7F4F4E155F0524F0F60179
:1019C00010836B01DACF4817590739F4063320F436
:1019D000053319F4A11001C011E3F6011083FB01D6
:1019E0008B2D90E2882319F091938150FBCFFB015E
:1019F000EB0DF11D108280E090E029960FB6F8946F
:101A0000DEBF0FBECDBFDF91CF911F910F91FF9031
:101A1000EF90DF90CF90BF90AF909F907F906F90AE
:101A20000895283008F027E03327DA01990F311D97
:101A300087FD916000966105710539F432602E5F73
:101A40003D9330E32A95E1F708959F3F30F08038C9
:101A50007105610509F03C5F3C5F3D93913008F0F2
:101A60008068911DDF93CF931F930F93FF92EF92A6
:101A7000192F987F9695E92F96959695E90FFF2750
:101A8000E45EFE4F99273327EE24FF24A701E701E8
:101A900005900894079428F4360FE71EF81E491F96
:101AA000511D660F771F881F991F0694A1F7059097
:101AB000079428F4E70EF81E491F561FC11D770F23
:101AC000881F991F661F0694A1F70590079428F4B4
:101AD000F80E491F561FC71FD11D880F991F661F7B
:101AE000771F0694A1F70590079420F4490F561F1D
:101AF000C71FD81F990F661F771F881F0694A9F765
:101B000084911095177041F0D695C79557954795D4
:101B1000F794E7941A95C1F7E2ECF0E06894159019
:101B2000159135916591959105907FE27395E11836
:101B3000F10A430B560BC90BD009C0F7E10CF11E9B
:101B4000431F561FC91FD01D7EF4703311F48A95B0
:101B5000E6CFE894015030F0080F0AF4002702178E
:101B600008F4202F2395022F7A3328F079E37D9310
:101B70002A95E9F710C07D932A9589F606949795E2
:101B80006795379517951794E118F10A430B560B93
:101B9000C90BD00998F023957E9173957A3308F09C
:101BA00070E37C932013B8F77E9170617D9330F0E1
:101BB000839571E37D9370E32A95E1F71124EF900B
:101BC000FF900F911F91CF91DF91992787FD9095FD
:101BD0000895DC01FC01672F71917723E1F73297BB
:101BE00004C07C916D9370836291AE17BF07C8F3F8
:101BF00008952F923F924F925F926F927F928F92B1
:101C00009F92AF92BF92CF92DF92EF92FF920F938B
:101C10001F93CF93DF93CDB7DEB7CA1BDB0B0FB695
:101C2000F894DEBF0FBECDBF09942A883988488852
:101C30005F846E847D848C849B84AA84B984C884E8
:101C4000DF80EE80FD800C811B81AA81B981CE0FDF
:101C5000D11D0FB6F894DEBF0FBECDBFED010895C4
:041C6000F894FFCF26
:101C640000005B01800001202A4300202A46005422
:101C7400656D702E3A20004C696768743A20000044
:081C8400000000C60319060070
:00000001FF
