:100000000C9462000C947F000C947F000C947F0091
:100010000C947F000C947F000C947F000C947F0064
:100020000C947F000C947F000C947F000C947F0054
:100030000C947F000C947F000C947F000C947F0044
:100040000C94F6000C947F000C947F000C947F00BD
:100050000C947F000C947F000C947F000C947F0024
:100060000C947F000C947F00000000080002010047
:100070000003040700000000000000000102040863
:100080001020408001020408102001020408102002
:10009000040404040404040402020202020203032E
:1000A00003030303000000002300260029000000D2
:1000B0000000250028002B0000000000240027007D
:1000C0002A00D30011241FBECFEFD8E0DEBFCDBF82
:1000D00021E0A0E0B1E001C01D92A131B207E1F73B
:1000E00010E0C4ECD0E004C02297FE010E949A0206
:1000F000C23CD107C9F70E9489020C949E020C945D
:1001000000000895AF92BF92CF92DF92EF92FF92DC
:100110000F931F93CF93DF93E12CF12CAA24A39488
:10012000B12C84E0C82E81E0D82E03E010E0E50178
:10013000002E02C0CC0FDD1F0A94E2F7CE21DF2192
:10014000002E02C0D695C7950A94E2F7F601808189
:100150000E945F028C179D0729F06C2FF6018081A9
:100160000E94290201501109FFEFCF1ADF0A0F3F49
:100170008FEF1807E1F668EE73E080E090E00E94F0
:100180006301EFEFEE1AFE0AFAE0EF16F10449F60A
:10019000DF91CF911F910F91FF90EF90DF90CF9063
:1001A000BF90AF900895CF93DF9384E080930001D8
:1001B00095E09093010126E02093020137E030930F
:1001C000030130930401209305019093060180936D
:1001D0000701C4E0D1E061E089910E94F00181E073
:1001E000C830D807C1F7DF91CF9108951F920F92C1
:1001F0000FB60F9211242F933F938F939F93AF933A
:10020000BF938091090190910A01A0910B01B091D7
:100210000C013091080123E0230F2D3720F40196C3
:10022000A11DB11D05C026E8230F0296A11DB11D19
:10023000209308018093090190930A01A0930B0178
:10024000B0930C0180910D0190910E01A0910F01CE
:10025000B09110010196A11DB11D80930D019093E5
:100260000E01A0930F01B0931001BF91AF919F9128
:100270008F913F912F910F900FBE0F901F90189567
:100280003FB7F89480910D0190910E01A0910F015C
:10029000B091100126B5A89B05C02F3F19F001961B
:1002A000A11DB11D3FBF6627782F892F9A2F620F9E
:1002B000711D811D911D42E0660F771F881F991FD8
:1002C0004A95D1F70895CF92DF92EF92FF92CF93A4
:1002D000DF936B017C010E944001EB01C114D1044A
:1002E000E104F10489F00E94C6010E9440016C1BE8
:1002F0007D0B683E734090F381E0C81AD108E10895
:10030000F108C851DC4FEACFDF91CF91FF90EF9019
:10031000DF90CF900895789484B5826084BD84B5D1
:10032000816084BD85B5826085BD85B5816085BDF0
:10033000EEE6F0E0808181608083E1E8F0E0108209
:10034000808182608083808181608083E0E8F0E04A
:10035000808181608083E1EBF0E080818460808334
:10036000E0EBF0E0808181608083EAE7F0E080816B
:1003700084608083808182608083808181608083CB
:100380008081806880831092C10008950895833031
:1003900081F028F4813099F08230A1F008958730FF
:1003A000A9F08830B9F08430D1F4809180008F7D3D
:1003B00003C0809180008F7780938000089584B57A
:1003C0008F7702C084B58F7D84BD08958091B00081
:1003D0008F7703C08091B0008F7D8093B000089527
:1003E000CF93DF9390E0FC01E458FF4F2491FC0190
:1003F000E057FF4F8491882349F190E0880F991FBF
:10040000FC01E854FF4FA591B49182559F4FFC0128
:10041000C591D4919FB7611108C0F8948C91209533
:1004200082238C93888182230AC0623051F4F8942D
:100430008C91322F309583238C938881822B8883F3
:1004400004C0F8948C91822B8C939FBFDF91CF9145
:1004500008950F931F93CF93DF931F92CDB7DEB70D
:10046000282F30E0F901E859FF4F8491F901E45851
:10047000FF4F1491F901E057FF4F04910023C9F099
:10048000882321F069830E94C7016981E02FF0E091
:10049000EE0FFF1FE255FF4FA591B4919FB7F8945F
:1004A0008C91611103C01095812301C0812B8C9325
:1004B0009FBF0F90DF91CF911F910F910895CF9320
:1004C000DF93282F30E0F901E859FF4F8491F901BB
:1004D000E458FF4FD491F901E057FF4FC491CC236A
:1004E00091F081110E94C701EC2FF0E0EE0FFF1F89
:1004F000EC55FF4FA591B4912C912D2381E090E014
:1005000021F480E002C080E090E0DF91CF91089577
:1005100008950E948B010E9488020E948100C0E021
:10052000D0E00E9482002097E1F30E940000F9CF02
:10053000EE0FFF1F0590F491E02D0994F894FFCF82
:00000001FF
