:100000000C9435000C945D000C945D000C945D0024
:100010000C945D000C945D000C945D000C945D00EC
:100020000C945D000C945D000C945D000C945D00DC
:100030000C945D000C945D000C945D000C945D00CC
:100040000C946C030C945D000C94C0010C94F201B0
:100050000C945D000C945D000C945D000C945D00AC
:100060000C945D000C945D00220211241FBECFEFA2
:10007000D8E0DEBFCDBF11E0A0E0B1E0E8E5F1E1FE
:1000800002C005900D92AA36B107D9F722E0AAE680
:10009000B1E001C01D92A431B207E1F710E0CAE659
:1000A000D0E004C02297FE010E942E06C836D10778
:1000B000C9F70E94FB050C94AA080C940000CF938A
:1000C000DF93CDB7DEB72C970FB6F894DEBF0FBE27
:1000D000CDBF4AE0BC01CE0107960E94010366E055
:1000E00071E0CE0101960E94D302BE01695F7F4F8D
:1000F000CE0101960E945903BC018AE691E00E945C
:100100008D04CE0101960E946502CE0107960E94E1
:1001100065022C960FB6F894DEBF0FBECDBFDF91FF
:10012000CF910895CF93DF93CDB7DEB72C970FB65D
:10013000F894DEBF0FBECDBF4AE0BC01CE010196F0
:100140000E94010369E171E0CE0107960E94D3028B
:10015000BE016F5F7F4FCE0107960E945903BC011D
:100160008AE691E00E948D04CE0107960E94650206
:10017000CE0101960E9465022C960FB6F894DEBF60
:100180000FBECDBFDF91CF91089526E040E855E244
:1001900060E070E08AE691E00C9494050F931F9361
:1001A000CF93DF93EC018B0186E090E00E94F6058F
:1001B000FC011182108213821282158304838881CC
:1001C0009981892B11F4F983E883AA81BB81109767
:1001D00031F0B183A0831396FC93EE931297FB83C7
:1001E000EA838C819D8101969D838C83DF91CF91E1
:1001F0001F910F9108950F931F93CF93DF93EC01FD
:100200008C819D81892BB9F0EA81FB810481158164
:10021000A081B18113961C921E921297BB83AA8370
:10022000CF010E94F8052C813D81215031093D8389
:100230002C83C80100C0DF91CF911F910F910895C9
:100240000F931F93CF93DF9300D000D000D0CDB792
:10025000DEB769E371E08AE691E00E949F041A82AA
:1002600019821C821B821E821D826AE070E0CE0110
:1002700001960E94CE0064E170E0CE0101960E94DA
:10028000CE006EE170E0CE0101960E94CE0068E2E1
:1002900070E0CE0101960E94CE0062E370E0CE01D4
:1002A00001960E94CE00CE0101960E94FB00E981DA
:1002B000FA81309759F184819581449719F58081AD
:1002C000918122813381009731F43A832983D901C6
:1002D0001D921C9205C0DC0113963C932E9312973D
:1002E0002115310541F49C838B83DC0113961C920C
:1002F0001E92129703C0D9018D939C93CF010E9447
:10030000F80504C00280F381E02DD3CF09811A8162
:100310000115110559F0F801848195810E945F0053
:10032000D80112960D911C911397F2CF09811A8171
:100330000115110559F0F801848195810E94920000
:10034000D80112960D911C911397F2CF68E873E1D2
:1003500080E090E00E94D9038D819E81892B29F055
:10036000CE0101960E94FB00F7CF26960FB6F894B7
:10037000DEBF0FBECDBFDF91CF911F910F910895CA
:100380001F920F920FB60F9211242F938F939F936A
:10039000EF93FF93E0917A01F0917B018081E091EE
:1003A0008001F091810182FD12C0908180918301D2
:1003B0008F5F8F7320918401821751F0E091830148
:1003C000F0E0E659FE4F958F8093830101C0808154
:1003D000FF91EF919F918F912F910F900FBE0F90F2
:1003E0001F9018951F920F920FB60F9211242F9302
:1003F0003F934F935F936F937F938F939F93AF93AD
:10040000BF93EF93FF938AE691E00E94EC04FF9183
:10041000EF91BF91AF919F918F917F916F915F917C
:100420004F913F912F910F900FBE0F901F901895F5
:100430008AE691E00E94B10421E0892B09F420E0D2
:10044000822F089510926D0110926C0188EE93E056
:10045000A0E0B0E080936E0190936F01A0937001D3
:10046000B09371018DE591E090936B0180936A01E7
:1004700085EC90E0909377018093760184EC90E096
:10048000909379018093780180EC90E090937B01C8
:1004900080937A0181EC90E090937D0180937C01C0
:1004A00082EC90E090937F0180937E0186EC90E057
:1004B00090938101809380011092830110928401B6
:1004C00010928501109286010895FC01808191812E
:1004D0000C94CA06CF93DF93EC0188819981009731
:1004E00011F00E94CA06198218821D821C821B828A
:1004F0001A82DF91CF9108950F931F93CF93DF93CB
:10050000EC018B016F5F7F4F888199810E945907B1
:10051000009731F0998388831B830A8381E001C0AF
:1005200080E0DF91CF911F910F910895CF93DF93DA
:10053000EC0188819981892B29F08A819B8186171A
:10054000970760F4CE010E947C02882341F08C81E1
:100550009D81892B19F4E881F981108281E0DF9176
:10056000CF910895EF92FF920F931F93CF93DF9354
:10057000EC017B018A01BA010E949602811104C03C
:10058000CE010E946A0207C01D830C83B7018881D7
:1005900099810E942C08CE01DF91CF911F910F917C
:1005A000FF90EF900895FC01118210821382128255
:1005B000158214826115710559F0FB01019000202C
:1005C000E9F7AF0141505109461B570B0C94B20299
:1005D0000895CF93DF93EC016115710561F0FB0184
:1005E00001900020E9F7AF0141505109461B570B1C
:1005F0000E94B20202C00E946A02CE01DF91CF9136
:1006000008950F931F93CF93DF93CDB7DEB7629713
:100610000FB6F894DEBF0FBECDBF8C01CB01F80141
:1006200011821082138212821582148250E0BE0160
:100630006F5F7F4F0E943308BE016F5F7F4FC8011D
:100640000E94E90262960FB6F894DEBF0FBECDBFDE
:10065000DF91CF911F910F910895EF92FF920F9329
:100660001F93CF93DF93EC017B010C811D816115FA
:10067000710511F480E016C04115510591F0040F89
:10068000151FB8010E9496028823A1F328813981A1
:100690008C819D81B701820F931F0E942C081D83BE
:1006A0000C8381E0DF91CF911F910F91FF90EF902C
:1006B0000895CF93DF93EC01FB0144815581608164
:1006C00071810E942D03811103C0CE010E946A0234
:1006D000CE01DF91CF9108951F920F920FB60F9226
:1006E00011242F933F938F939F93AF93BF93809148
:1006F000080290910902A0910A02B0910B02309178
:10070000070223E0230F2D3720F40196A11DB11D10
:1007100005C026E8230F0296A11DB11D20930702F4
:100720008093080290930902A0930A02B0930B02EF
:1007300080910C0290910D02A0910E02B0910F02D7
:100740000196A11DB11D80930C0290930D02A09300
:100750000E02B0930F02BF91AF919F918F913F9185
:100760002F910F900FBE0F901F9018953FB7F894E0
:1007700080910C0290910D02A0910E02B0910F0297
:1007800026B5A89B05C02F3F19F00196A11DB11DEC
:100790003FBF6627782F892F9A2F620F711D811D09
:1007A000911D42E0660F771F881F991F4A95D1F768
:1007B0000895CF92DF92EF92FF92CF93DF936B0178
:1007C0007C010E94B603EB01C114D104E104F104E1
:1007D00089F00E943C040E94B6036C1B7D0B683EAE
:1007E000734090F381E0C81AD108E108F108C851BC
:1007F000DC4FEACFDF91CF91FF90EF90DF90CF9069
:100800000895789484B5826084BD84B5816084BD88
:1008100085B5826085BD85B5816085BDEEE6F0E079
:10082000808181608083E1E8F0E0108280818260D5
:100830008083808181608083E0E8F0E08081816056
:100840008083E1EBF0E0808184608083E0EBF0E086
:10085000808181608083EAE7F0E08081846080832A
:1008600080818260808380818160808380818068D4
:1008700080831092C10008950895CF92DF92EF9285
:10088000FF920F931F93CF93DF937C016A01EB01DB
:1008900000E010E00C151D0571F06991D701ED9194
:1008A000FC910190F081E02DC7010995892B19F089
:1008B0000F5F1F4FEFCFC801DF91CF911F910F91B5
:1008C000FF90EF90DF90CF9008956115710581F052
:1008D000DB010D900020E9F7AD0141505109461BA5
:1008E000570BDC01ED91FC910280F381E02D09941E
:1008F00080E090E00895DC01ED91FC91DB0114961D
:100900004D915C9115976D917C910280F381E02D62
:10091000099468E471E00C9465040F931F93CF93DE
:10092000DF93EC010E947B048C01CE010E948904BC
:10093000800F911FDF91CF911F910F9108950F9319
:100940001F93CF93DF93EC010E9465048C01CE01CD
:100950000E948904800F911FDF91CF911F910F9109
:100960000895FC01818D228D90E0805C9F4F821B59
:1009700091098F7399270895FC01918D828D9817A5
:1009800031F0828DE80FF11D858D90E008958FEF95
:100990009FEF0895FC01918D828D981761F0828DF3
:1009A000DF01A80FB11D5D968C91928D9F5F9F73A3
:1009B000928F90E008958FEF9FEF089588E192E085
:1009C000892B49F080E090E0892B29F00E941802E1
:1009D00081110C9400000895FC01848DDF01A80FA3
:1009E000B11DA35ABF4F2C91848D90E001968F7357
:1009F0009927848FA689B7892C93A089B1898C9176
:100A000080648C93938D848D981306C00288F3893B
:100A1000E02D80818F7D80830895CF93DF93EC015B
:100A2000888D8823C9F0EA89FB89808185FD05C00E
:100A3000A889B9898C9186FD0FC00FB607FCF5CF48
:100A4000808185FFF2CFA889B9898C9185FFEDCF90
:100A5000CE010E94EC04E7CFDF91CF910895CF92B1
:100A6000DF92FF920F931F93CF93DF931F92CDB727
:100A7000DEB76C0181E0D60158968C9358975B964F
:100A80009C915B975C968C915C97981307C05096ED
:100A9000ED91FC915197808185FD2EC0F601038D6B
:100AA00010E00F5F1F4F0F731127F02EF601848D9A
:100AB000F81211C00FB607FCF9CFD6015096ED9190
:100AC000FC915197808185FFF1CFC60169830E9417
:100AD000EC046981EBCF838DE80FF11DE35AFF4FE2
:100AE0006083D6015B960C935B975296ED91FC91D7
:100AF0005397808180620CC0D6015696ED91FC918F
:100B0000579760835096ED91FC9151978081806456
:100B1000808381E090E00F90DF91CF911F910F9142
:100B2000FF90DF90CF900895BF92CF92DF92EF9227
:100B3000FF92CF93DF93EC016A017B01B22EE8892B
:100B4000F98982E08083411581EE580761057105BE
:100B5000A1F060E079E08DE390E0A70196010E94AA
:100B60000A06215031094109510956954795379593
:100B70002795211580E1380798F0E889F9891082D6
:100B800060E874E88EE190E0A70196010E940A06F1
:100B900021503109410951095695479537952795B7
:100BA000EC85FD853083EE85FF852083188EEC89EA
:100BB000FD89B082EA89FB89808180618083EA892E
:100BC000FB89808188608083EA89FB8980818068D5
:100BD0008083EA89FB8980818F7D8083DF91CF913B
:100BE000FF90EF90DF90CF90BF9008950C94320665
:100BF0000C94CA0608950E9401040E94FA050E94FE
:100C0000C500CEEDD4E00E9420012097E1F30E94C0
:100C1000DE04F9CFA1E21A2EAA1BBB1BFD010DC0F9
:100C2000AA1FBB1FEE1FFF1FA217B307E407F5079C
:100C300020F0A21BB30BE40BF50B661F771F881F78
:100C4000991F1A9469F760957095809590959B010E
:100C5000AC01BD01CF010895EE0FFF1F0590F49187
:100C6000E02D0994CF93DF938230910510F482E058
:100C700090E0E0911202F091130220E030E0A0E059
:100C8000B0E0309739F14081518148175907B8F0E9
:100C90004817590771F482819381109729F01396B0
:100CA0009C938E9312972CC0909313028093120200
:100CB00027C02115310531F04217530718F0A9015B
:100CC000DB0101C0EF019A01BD01DF010280F38168
:100CD000E02DD7CF21153105F9F0281B390B243031
:100CE000310580F48A819B816115710521F0FB013A
:100CF0009383828304C09093130280931202FE01B7
:100D0000329644C0FE01E20FF31F8193919322506B
:100D10003109398328833AC02091100230911102A1
:100D2000232B41F4209102013091030130931102F1
:100D3000209310022091000130910101211531050D
:100D400041F42DB73EB74091040150910501241B99
:100D5000350BE0911002F0911102E217F307A0F4B5
:100D60002E1B3F0B2817390778F0AC014E5F5F4F01
:100D70002417350748F04E0F5F1F50931102409320
:100D800010028193919302C0E0E0F0E0CF01DF9187
:100D9000CF910895CF93DF93009709F487C0FC01AA
:100DA000329713821282C0911202D09113022097BF
:100DB00081F420813181280F391F80911002909198
:100DC00011028217930779F5F0931102E093100254
:100DD0006DC0DE0120E030E0AE17BF0750F4129680
:100DE0004D915C9113979D014115510509F1DA016F
:100DF000F3CFB383A28340815181840F951F8A175B
:100E00009B0771F48D919C911197840F951F029609
:100E10009183808312968D919C9113979383828303
:100E20002115310529F4F0931302E09312023EC01C
:100E3000D9011396FC93EE9312974D915D91A40FF7
:100E4000B51FEA17FB0779F480819181840F951F04
:100E50000296D90111969C938E9382819381139669
:100E60009C938E931297E0E0F0E08A819B8100973B
:100E700019F0FE01EC01F9CFCE01029628813981EB
:100E8000820F931F20911002309111022817390709
:100E900069F4309729F4109213021092120202C0E2
:100EA00013821282D0931102C0931002DF91CF916E
:100EB0000895A0E0B0E0EFE5F7E00C947708EC01CE
:100EC000CB01209719F40E943206B8C0FE01E60F4C
:100ED000F71F9E0122503109E217F30708F4ACC056
:100EE000D9010D911C91119706171707B8F005301D
:100EF000110508F49FC0A80144505109461757072F
:100F000008F498C002501109061B170B01931193A6
:100F10006D937C93CF010E94CA068CC05B01A01A1E
:100F2000B10A4E01800E911EA0911202B0911302DF
:100F3000612C712C60E070E0109709F449C0A8158D
:100F4000B905C9F5ED90FC901197670142E0C40E18
:100F5000D11CCA14DB0478F147018A189B0864018C
:100F600042E0C40ED11C1296BC9012971396AC911D
:100F7000B5E0CB16D10440F0B282A3839182808287
:100F8000D9018D939C9309C00E5F1F4F0E0D1F1D3D
:100F9000F90111830083EB2DFA2F6115710531F0F2
:100FA000DB011396FC93EE93129744C0F093130267
:100FB000E09312023FC06D917C91119766167706FF
:100FC00008F43B01BD0112960D90BC91A02DB4CF49
:100FD000609110027091110268157905E9F46816A4
:100FE0007906D0F44091000150910101411551055D
:100FF00041F44DB75EB76091040170910501461B45
:10100000570BE417F507C0F4F0931102E0931002B8
:10101000F901918380830EC00E9432067C01009703
:1010200059F0A801BE010E942308CE010E94CA0601
:10103000C70104C0CE0102C080E090E0CDB7DEB7AA
:10104000EEE00C949308FB01DC0102C001900D92CC
:1010500041505040D8F70895FB01DC0101900D92FA
:101060000020E1F708954532510520F4423010F098
:101070000C943E08FB011082CB010895BB274A3037
:1010800031F4992322F4BDE2909581959F4F0C9401
:101090004A08BB27FB015527AA27880F991FAA1FBB
:1010A000A41710F0A41B83955051B9F7A05DAA3383
:1010B00008F0A95DA193009779F7B111B19311924E
:1010C000CB010C946308DC01FC01672F719177233D
:1010D000E1F7329704C07C916D9370836291AE17F3
:1010E000BF07C8F308952F923F924F925F926F927D
:1010F0007F928F929F92AF92BF92CF92DF92EF92A8
:10110000FF920F931F93CF93DF93CDB7DEB7CA1B28
:10111000DB0B0FB6F894DEBF0FBECDBF09942A8853
:10112000398848885F846E847D848C849B84AA84FB
:10113000B984C884DF80EE80FD800C811B81AA8188
:10114000B981CE0FD11D0FB6F894DEBF0FBECDBF53
:08115000ED010895F894FFCFB2
:101158000000140280005468617427732074686565
:101168002076616C75653A20005573696E67206C4E
:10117800616D62646120746F2067657420746865AE
:101188002076616C75653A20005B54657374696EEE
:1011980067204C6973745D000D0A006E616E00690A
:1011A8006E66006F7666002E00000000002F053D79
:0A11B80004B104CA04BC040D0500D4
:00000001FF
