:100000000C9462000C948A000C948A000C948A0070
:100010000C948A000C948A000C948A000C948A0038
:100020000C948A000C948A000C948A000C948A0028
:100030000C948A000C948A000C948A000C948A0018
:100040000C946C020C948A000C948A000C948A0024
:100050000C948A000C948A000C948A000C948A00F8
:100060000C948A000C948A00000000080002010031
:100070000003040700000000000000000102040863
:100080001020408001020408102001020408102002
:10009000040404040404040402020202020203032E
:1000A00003030303000000002300260029000000D2
:1000B0000000250028002B0000000000240027007D
:1000C0002A00270211241FBECFEFD8E0DEBFCDBF2C
:1000D00011E0A0E0B1E0E2E9F8E002C005900D9285
:1000E000A231B107D9F721E0A2E1B1E001C01D9230
:1000F000AC36B207E1F710E0C4ECD0E004C02297C0
:10010000FE010E944304C23CD107C9F70E941E04AD
:100110000C9447040C940000EF92FF920F931F93EE
:10012000CF93DF93EC010E94B6028B019C018B857B
:100130009C85AD85BE85B901A801481B590B6A0B8A
:100140007B0BDB01CA014D815E816F81788584174D
:100150009507A607B707C8F169857A858FEF90E004
:100160000E942D047B010B871C872D873E876F859E
:1001700078898A810E94FD022B813C818F85988934
:100180002230310551F48F3F910514F0198A05C0D2
:100190001816190614F021E0298B2989222359F019
:1001A0008E0D9F1D988B8F878F3F910571F06CF09E
:1001B000188A1F860AC08E199F09988B8F8797FF10
:1001C00004C08FEF90E0988B8F87DF91CF911F91C4
:1001D0000F91FF90EF900895CF92DF92EF92FF92F0
:1001E0000F931F93CF93DF93EC010E94B6020B8114
:1001F0001C812D813E816B017C01C01AD10AE20A6B
:10020000F30A0F81188529853A85C016D106E206C2
:10021000F306B0F06B837C838D839E838A810E947A
:10022000F40361E0019709F460E08A81DF91CF91E6
:100230001F910F91FF90EF90DF90CF900C94BE0331
:10024000DF91CF911F910F91FF90EF90DF90CF90B2
:100250000895CF92DF92EF92FF920F931F93CF9367
:10026000DF93EC010E94B6022B852130D1F40C857E
:100270001D852E853F856B017C01C01AD10AE20ADB
:10028000F30A0B811C812D813E81C016D106E20646
:10029000F30670F11B866C877D878E879F8760E0F1
:1002A0001CC0211125C00C851D852E853F856B0145
:1002B0007C01C01AD10AE20AF30A0F811885298548
:1002C0003A85C016D106E206F30690F021E02B87AE
:1002D0006C877D878E879F8761E08A81DF91CF91D0
:1002E0001F910F91FF90EF90DF90CF900C94BE0381
:1002F000DF91CF911F910F91FF90EF90DF90CF9002
:10030000089510925501109254018AEF90E0A0E0F8
:10031000B0E08093560190935701A0935801B09399
:10032000590125E030E030935B0120935A0110928F
:100330005C0110925D0110925E0110925F011092BB
:1003400061011092600161E06093620141E050E060
:10035000509343014093420180934401909345019F
:10036000A0934601B093470130934901209348017F
:1003700010924A0110924B0110924C0110924D01C3
:100380004FEF50E050934F0140934E0110925001B7
:1003900042E050E0509331014093300180933201AC
:1003A00090933301A0933401B0933501309337011A
:1003B00020933601109238011092390110923A01BF
:1003C00010923B0110923D0110923C0160933E015E
:1003D0008093290190932A01A0932B01B0932C01C3
:1003E00084E690E0A0E0B0E08093150190931601C0
:1003F000A0931701B09318018CE291E0A0E0B0E067
:100400008093190190931A01A0931B01B0931C01D2
:1004100010921D0110921E0110921F0110922001D6
:1004200010922101089581E591E00E948C008FE3F4
:1004300091E00E948C008DE291E00E948C0082E2AB
:1004400091E00E94EC0082E191E00C942901CF93AD
:10045000DF938BE08093530161E00E948503C4E049
:10046000D1E0D0935201C09351018AE080934101C1
:1004700061E00E948503D0934001C0933F0189E071
:1004800080932F0161E00E948503D0932E01C093D9
:100490002D0186E08093240161E00E9485038AE0BB
:1004A00091E09093230180932201109225011092F4
:1004B0002601109227011092280185E080931401F3
:1004C00061E00E94850380E191E0909313018093A5
:1004D0001201DF91CF9108951F920F920FB60F92E4
:1004E00011242F933F938F939F93AF93BF9380914A
:1004F000640190916501A0916601B091670130910E
:10050000630123E0230F2D3720F40196A11DB11DB7
:1005100005C026E8230F0296A11DB11D209363019B
:100520008093640190936501A0936601B093670185
:100530008091680190916901A0916A01B0916B016D
:100540000196A11DB11D8093680190936901A0934C
:100550006A01B0936B01BF91AF919F918F913F91D1
:100560002F910F900FBE0F901F9018952FB7F894F2
:1005700060916401709165018091660190916701BD
:100580002FBF0895789484B5826084BD84B581605E
:1005900084BD85B5826085BD85B5816085BDEEE68B
:1005A000F0E0808181608083E1E8F0E0108280816A
:1005B00082608083808181608083E0E8F0E08081D8
:1005C00081608083E1EBF0E0808184608083E0EBF8
:1005D000F0E0808181608083EAE7F0E080818460E0
:1005E000808380818260808380818160808380813C
:1005F000806880831092C10008951F93CF93DF938A
:10060000182FEB0161E00E948503209711F460E050
:1006100004C0CF3FD10539F461E0812FDF91CF9144
:100620001F910C94BE03E12FF0E0E859FF4FE491D5
:10063000E330F9F048F4E130B9F0E230A1F584B5E7
:10064000806284BDC8BD34C0E730E9F0E83019F1FC
:10065000E43049F580918000806280938000D093DF
:100660008B00C0938A0024C084B5806884BDC7BD58
:100670001FC080918000806880938000D0938900A3
:10068000C093880015C08091B00080688093B0004E
:10069000C093B3000DC08091B00080628093B00021
:1006A000C093B40005C0C038D1050CF0B5CFAFCFB2
:1006B000DF91CF911F910895833081F028F481302C
:1006C00099F08230A1F008958730A9F08830B9F010
:1006D0008430D1F4809180008F7D03C080918000B0
:1006E0008F7780938000089584B58F7702C084B59A
:1006F0008F7D84BD08958091B0008F7703C0809175
:10070000B0008F7D8093B0000895CF93DF9390E089
:10071000FC01E458FF4F2491FC01E057FF4F849106
:10072000882349F190E0880F991FFC01E854FF4F9E
:10073000A591B49182559F4FFC01C591D4919FB76B
:10074000611108C0F8948C91209582238C93888144
:1007500082230AC0623051F4F8948C91322F309584
:1007600083238C938881822B888304C0F8948C9196
:10077000822B8C939FBFDF91CF9108950F931F938E
:10078000CF93DF931F92CDB7DEB7282F30E0F9016A
:10079000E859FF4F8491F901E458FF4F1491F90192
:1007A000E057FF4F04910023C9F0882321F06983AB
:1007B0000E945C036981E02FF0E0EE0FFF1FE2551D
:1007C000FF4FA591B4919FB7F8948C91611103C02C
:1007D0001095812301C0812B8C939FBF0F90DF91D7
:1007E000CF911F910F910895CF93DF93282F30E081
:1007F000F901E859FF4F8491F901E458FF4FD49172
:10080000F901E057FF4FC491CC2391F081110E9470
:100810005C03EC2FF0E0EE0FFF1FEC55FF4FA591AE
:10082000B4912C912D2381E090E021F480E002C06E
:1008300080E090E0DF91CF91089508950E94C20278
:100840000E941D040E948101C0E0D0E00E941302BA
:100850002097E1F30E940000F9CFAA1BBB1B51E1D6
:1008600007C0AA1FBB1FA617B70710F0A61BB70B20
:10087000881F991F5A95A9F780959095BC01CD01C5
:100880000895EE0FFF1F0590F491E02D0994F89460
:02089000FFCF98
:10089200000000008C0000000000EC0000000000DE
:0208A20029012A
:00000001FF
