:100000000C9462000C948A000C948A000C948A0070
:100010000C948A000C948A000C948A000C948A0038
:100020000C948A000C948A000C948A000C948A0028
:100030000C948A000C948A000C948A000C948A0018
:100040000C9449010C948A000C948A000C948A0048
:100050000C948A000C948A000C948A000C948A00F8
:100060000C948A000C948A00000000080002010031
:100070000003040700000000000000000102040863
:100080001020408001020408102001020408102002
:10009000040404040404040402020202020203032E
:1000A00003030303000000002300260029000000D2
:1000B0000000250028002B0000000000240027007D
:1000C0002A002E0111241FBECFEFD8E0DEBFCDBF26
:1000D00011E0A0E0B1E0ECEBF6E002C005900D927B
:1000E000A630B107D9F721E0A6E0B1E001C01D922A
:1000F000A532B207E1F710E0C4ECD0E004C02297CB
:10010000FE010E945803C23CD107C9F70E94470371
:100110000C945C030C940000882349F08091060144
:1001200090910701C39690930701809306018091F7
:100130000601909107018F3F910529F024F010925C
:1001400007011092060160910601709107018091EC
:1001500008010C942602CF93DF93EC018A810E9460
:100160001D032F8538898217930759F06B857C858D
:100170008D859E850E94C2018A81DF91CF910C946A
:100180001D03DF91CF910895CF92DF92EF92FF92FE
:100190000F931F93CF93DF93EC010E9493010F8184
:1001A000188529853A856B017C01C01AD10AE20ABB
:1001B000F30A0B811C812D813E81C016D106E20617
:1001C000F30600F16F83788789879A870F851889EE
:1001D000CE010E94AB0008171907A1F009891A89FE
:1001E000CE010E94AB0021E0019709F020E0822FB0
:1001F000F801DF91CF911F910F91FF90EF90DF9069
:10020000CF900994DF91CF911F910F91FF90EF90C4
:10021000DF90CF90089585E090E0A0E0B0E080937B
:10022000140190931501A0931601B093170182E376
:1002300090E0A0E0B0E080930C0190930D01A093BA
:100240000E01B0930F018CE890E090931B01809316
:100250001A01089589E091E00C94C40088E080932D
:100260000B0184E091E090930A01809309011092C0
:1002700010011092110110921201109213011092AC
:1002800019011092180189E08093080161E00C9433
:10029000AE021F920F920FB60F9211242F933F932D
:1002A0008F939F93AF93BF9380911D0190911E01F7
:1002B000A0911F01B091200130911C0123E0230F78
:1002C0002D3720F40196A11DB11D05C026E8230F8E
:1002D0000296A11DB11D20931C0180931D019093D6
:1002E0001E01A0931F01B0932001809121019091E4
:1002F0002201A0912301B09124010196A11DB11DFD
:100300008093210190932201A0932301B0932401B3
:10031000BF91AF919F918F913F912F910F900FBE01
:100320000F901F9018952FB7F89460911D01709150
:100330001E0180911F01909120012FBF08953FB7AA
:10034000F8948091210190912201A0912301B09114
:10035000240126B5A89B05C02F3F19F00196A11DC9
:10036000B11D3FBF6627782F892F9A2F620F711D0D
:10037000811D911D42E0660F771F881F991F4A95C6
:10038000D1F70895CF92DF92EF92FF92CF93DF9350
:100390006B017C010E949F01EB01C114D104E104B7
:1003A000F10489F00E9425020E949F016C1B7D0BC5
:1003B000683E734090F381E0C81AD108E108F10863
:1003C000C851DC4FEACFDF91CF91FF90EF90DF90E3
:1003D000CF900895789484B5826084BD84B581609F
:1003E00084BD85B5826085BD85B5816085BDEEE63D
:1003F000F0E0808181608083E1E8F0E0108280811C
:1004000082608083808181608083E0E8F0E0808189
:1004100081608083E1EBF0E0808184608083E0EBA9
:10042000F0E0808181608083EAE7F0E08081846091
:1004300080838081826080838081816080838081ED
:10044000806880831092C100089508951F93CF9310
:10045000DF93182FEB0161E00E94AE02209711F4A8
:1004600060E004C0CF3FD10539F461E0812FDF9116
:10047000CF911F910C94E702E12FF0E0E859FF4F74
:10048000E491E330F9F048F4E130B9F0E230A1F55D
:1004900084B5806284BDC8BD34C0E730E9F0E8307F
:1004A00019F1E43049F580918000806280938000EA
:1004B000D0938B00C0938A0024C084B5806884BD2B
:1004C000C7BD1FC080918000806880938000D0935A
:1004D0008900C093880015C08091B0008068809327
:1004E000B000C093B3000DC08091B00080628093D3
:1004F000B000C093B40005C0C038D1050CF0B5CF32
:10050000AFCFDF91CF911F910895833081F028F410
:10051000813099F08230A1F008958730A9F08830B9
:10052000B9F08430D1F4809180008F7D03C0809138
:1005300080008F7780938000089584B58F7702C004
:1005400084B58F7D84BD08958091B0008F7703C0FE
:100550008091B0008F7D8093B0000895CF93DF939A
:1005600090E0FC01E458FF4F2491FC01E057FF4F5D
:100570008491882349F190E0880F991FFC01E85489
:10058000FF4FA591B49182559F4FFC01C591D49125
:100590009FB7611108C0F8948C91209582238C93A9
:1005A000888182230AC0623051F4F8948C91322FF2
:1005B000309583238C938881822B888304C0F894A0
:1005C0008C91822B8C939FBFDF91CF9108950F93D5
:1005D0001F93CF93DF931F92CDB7DEB7282F30E064
:1005E000F901E859FF4F8491F901E458FF4F149144
:1005F000F901E057FF4F04910023C9F0882321F04F
:1006000069830E9485026981E02FF0E0EE0FFF1FF1
:10061000E255FF4FA591B4919FB7F8948C91611169
:1006200003C01095812301C0812B8C939FBF0F9035
:10063000DF91CF911F910F910895CF93DF93282FD2
:1006400030E0F901E859FF4F8491F901E458FF4F78
:10065000D491F901E057FF4FC491CC2391F081115F
:100660000E948502EC2FF0E0EE0FFF1FEC55FF4FCC
:10067000A591B4912C912D2381E090E021F480E0AC
:1006800002C080E090E0DF91CF91089508950E942C
:10069000EA010E9446030E940B01C0E0D0E00E94E4
:1006A0002A012097E1F30E940000F9CFEE0FFF1F0F
:0C06B0000590F491E02D0994F894FFCF20
:0606BC0000000000C40074
:00000001FF
