:100000000C9437000C945F000C945F000C945F001C
:100010000C945F000C945F000C945F000C945F00E4
:100020000C945F000C945F000C945F000C945F00D4
:100030000C945F000C945F000C945F000C945F00C4
:100040000C9416040C945F000C9425020C94570237
:100050000C945F000C945F000C945F000C945F00A4
:100060000C945F000C945F00F701870204021124D6
:100070001FBECFEFD8E0DEBFCDBF11E0A0E0B1E002
:10008000E8E8F2E102C005900D92A433B107D9F778
:1000900021E0A4E3B1E001C01D92A43EB207E1F764
:1000A00010E0CCE6D0E004C02297FE010E94C60614
:1000B000C836D107C9F70E9493060C9437090C94EF
:1000C000000026E040E855E260E070E08AE391E05D
:1000D0000C942C06CF92DF92EF92FF920F931F9316
:1000E000CF93DF93EC016B0188E090E00E948E06D5
:1000F0008C0188E0F80111928A95E9F77801F2E025
:10010000EF0EF11C65E171E0C7010E945D03B601CD
:10011000C7010E947303F801118210828A819B81BA
:10012000892B11F41B830A838C819D81892B11F407
:100130001D830C83EC81FD81118300831D830C835F
:1001400088819981019699838883DF91CF911F914E
:100150000F91FF90EF90DF90CF900895AF92BF92F4
:10016000CF92DF92EF92FF920F931F93CF93DF9383
:1001700000D000D000D0CDB7DEB77C018B01DB0111
:100180008D919C911197892B91F11296CD90DC90D5
:1001900013975601B2E0AB0EB11CB501CE0101962A
:1001A0000E948A03D8011296ED91FC9113978081E9
:1001B000918113969C938E931297C114D10431F0C0
:1001C000C5010E94EF02C6010E949006F8018081DD
:1001D0009181019791838083BE016F5F7F4FC7013B
:1001E0000E94CA02CE0101960E94EF0205C065E19D
:1001F00071E0C7010E945D03C70126960FB6F8940F
:10020000DEBF0FBECDBFDF91CF911F910F91FF9049
:10021000EF90DF90CF90BF90AF9008950F931F9312
:10022000CF93DF93CDB7DEB72C970FB6F894DEBF30
:100230000FBECDBF66E071E0CE0101960E945D0366
:10024000BE016F5F7F4F84E391E00E946A00CE01A0
:1002500001960E94EF0268E071E0CE0101960E94D3
:100260005D03BE016F5F7F4F84E391E00E946A00EF
:10027000CE0101960E94EF026AE071E0CE01019684
:100280000E945D03BE016F5F7F4F84E391E00E9497
:100290006A00CE0101960E94EF0264E371E0CE0194
:1002A00001960E94AE00BE016F5F7F4F8AE391E02E
:1002B0000E943705CE0101960E94EF0204E311E08F
:1002C000F801608171814AE0CE0107960E94AB037C
:1002D0006CE071E0CE0101960E945D03BE01695F92
:1002E0007F4FCE0101960E940304BC018AE391E096
:1002F0000E943705CE0101960E94EF02CE010796BB
:100300000E94EF02B801CE0101960E94AE00BE012C
:100310006F5F7F4F8AE391E00E943705CE0101961F
:100320000E94EF02F801608171814AE0CE010796D8
:100330000E94AB036CE071E0CE0101960E945D0368
:10034000BE01695F7F4FCE0101960E940304BC018C
:100350008AE391E00E943705CE0101960E94EF02E8
:10036000CE0107960E94EF02B801CE0101960E94CD
:10037000AE00BE016F5F7F4F8AE391E00E943705B8
:10038000CE0101960E94EF02F801608171814AE07E
:10039000CE0107960E94AB036CE071E0CE0101969E
:1003A0000E945D03BE01695F7F4FCE0101960E94EE
:1003B0000304BC018AE391E00E943705CE01019657
:1003C0000E94EF02CE0107960E94EF0268EB7BE0ED
:1003D00080E090E00E9483042C960FB6F894DEBF74
:1003E0000FBECDBFDF91CF911F910F910895109255
:1003F000350110923401109237011092360110929B
:100400003901109238010895CF93DF9300D000D0C6
:1004100000D0CDB7DEB78091340190913501892BA2
:1004200059F064E371E0CE0101960E94AE00CE0166
:1004300001960E94EF02EFCF26960FB6F894DEBF2A
:100440000FBECDBFDF91CF9108951F920F920FB6CF
:100450000F9211242F938F939F93EF93FF93E0912B
:100460004A01F0914B018081E0915001F0915101DE
:1004700082FD12C09081809153018F5F8F73209114
:100480005401821751F0E0915301F0E0E65CFE4F19
:10049000958F8093530101C08081FF91EF919F91CF
:1004A0008F912F910F900FBE0F901F9018951F9254
:1004B0000F920FB60F9211242F933F934F935F9398
:1004C0006F937F938F939F93AF93BF93EF93FF931C
:1004D0008AE391E00E948405FF91EF91BF91AF9173
:1004E0009F918F917F916F915F914F913F912F914C
:1004F0000F900FBE0F901F9018958AE391E00E9415
:10050000490521E0892B09F420E0822F08951092FB
:100510003D0110923C0188EE93E0A0E0B0E08093B2
:100520003E0190933F01A0934001B093410188E2C6
:1005300091E090933B0180933A0185EC90E0909399
:1005400047018093460184EC90E0909349018093A9
:10055000480180EC90E090934B0180934A0181EC3C
:1005600090E090934D0180934C0182EC90E0909349
:100570004F0180934E0186EC90E09093510180935F
:100580005001109253011092540110925501109293
:1005900056010895FC01DB01118210821382128240
:1005A000158214828D919C9111979183808312966C
:1005B0008D919C9113979383828314968D919C9136
:1005C00015979583848311961C921E9213961C9204
:1005D0001E92129715961C921E9214970895FC0174
:1005E000808191810C946207CF93DF93EC01888125
:1005F0009981009711F00E946207198218821D826A
:100600001C821B821A82DF91CF9108950F931F9352
:10061000CF93DF93EC018B016F5F7F4F88819981CE
:100620000E94F107009731F0998388831B830A8326
:1006300081E001C080E0DF91CF911F910F9108957B
:10064000CF93DF93EC0188819981892B29F08A81EE
:100650009B818617970760F4CE010E9406038823CA
:1006600041F08C819D81892B19F4E881F9811082F8
:1006700081E0DF91CF910895EF92FF920F931F9346
:10068000CF93DF93EC017B018A01BA010E94200322
:10069000811104C0CE010E94F40207C01D830C83A7
:1006A000B701888199810E94C408CE01DF91CF9162
:1006B0001F910F91FF90EF900895FC01118210821D
:1006C00013821282158214826115710559F0FB01A3
:1006D00001900020E9F7AF0141505109461B570B2B
:1006E0000C943C030895CF93DF93EC01FB01861734
:1006F000970761F0608171816115710529F044816E
:1007000055810E943C0302C00E94F402CE01DF9199
:10071000CF910895FC0111821082138212821582FA
:1007200014820C947303CF93DF93EC016115710570
:1007300061F0FB0101900020E9F7AF014150510940
:10074000461B570B0E943C0302C00E94F402CE01DC
:10075000DF91CF9108950F931F93CF93DF93CDB780
:10076000DEB761970FB6F894DEBF0FBECDBF8C0128
:10077000CB01F80111821082138212821582148239
:1007800050E0BE016F5F7F4F0E94CB08BE016F5FDC
:100790007F4FC8010E94930361960FB6F894DEBFA5
:1007A0000FBECDBFDF91CF911F910F910895EF92B2
:1007B000FF920F931F93CF93DF93EC017B010C818A
:1007C0001D816115710511F480E016C041155105B8
:1007D00091F0040F151FB8010E9420038823A1F394
:1007E000288139818C819D81B701820F931F0E94DE
:1007F000C4081D830C8381E0DF91CF911F910F917D
:10080000FF90EF900895CF93DF93EC01FB014481BB
:100810005581608171810E94D703811103C0CE018F
:100820000E94F402CE01DF91CF9108951F920F92A2
:100830000FB60F9211242F933F938F939F93AF93F3
:10084000BF938091D8019091D901A091DA01B09124
:10085000DB013091D70123E0230F2D3720F40196DF
:10086000A11DB11D05C026E8230F0296A11DB11DD3
:100870002093D7018093D8019093D901A093DA01F6
:10088000B093DB018091DC019091DD01A091DE014C
:10089000B091DF010196A11DB11D8093DC01909301
:1008A000DD01A093DE01B093DF01BF91AF919F9175
:1008B0008F913F912F910F900FBE0F901F90189521
:1008C0003FB7F8948091DC019091DD01A091DE01A9
:1008D000B091DF0126B5A89B05C02F3F19F0019606
:1008E000A11DB11D3FBF6627782F892F9A2F620F58
:1008F000711D811D911D42E0660F771F881F991F92
:100900004A95D1F70895CF92DF92EF92FF92CF935D
:10091000DF936B017C010E946004EB01C114D104E0
:10092000E104F10489F00E94E6040E9460046C1B5B
:100930007D0B683E734090F381E0C81AD108E1084E
:10094000F108C851DC4FEACFDF91CF91FF90EF90D3
:10095000DF90CF900895789484B5826084BD84B58B
:10096000816084BD85B5826085BD85B5816085BDAA
:10097000EEE6F0E0808181608083E1E8F0E01082C3
:10098000808182608083808181608083E0E8F0E004
:10099000808181608083E1EBF0E0808184608083EE
:1009A000E0EBF0E0808181608083EAE7F0E0808125
:1009B0008460808380818260808380818160808385
:1009C0008081806880831092C10008950895CF923D
:1009D000DF92EF92FF920F931F93CF93DF937C01EF
:1009E0006A01EB0100E010E00C151D0571F0699142
:1009F000D701ED91FC910190F081E02DC70109959F
:100A0000892B19F00F5F1F4FEFCFC801DF91CF91F6
:100A10001F910F91FF90EF90DF90CF900895611597
:100A2000710581F0DB010D900020E9F7AD01415027
:100A30005109461B570BDC01ED91FC910280F381BB
:100A4000E02D099480E090E00895DC01ED91FC91A7
:100A5000DB0114964D915C9115976D917C9102800C
:100A6000F381E02D099463E171E00C940F050F937D
:100A70001F93CF93DF93EC010E9425058C01CE01DB
:100A80000E943305800F911FDF91CF911F910F912D
:100A90000895FC01818D228D90E0805C9F4F821B28
:100AA00091098F7399270895FC01918D828D981774
:100AB00031F0828DE80FF11D858D90E008958FEF64
:100AC0009FEF0895FC01918D828D981761F0828DC2
:100AD000DF01A80FB11D5D968C91928D9F5F9F7372
:100AE000928F90E008958FEF9FEF08958DE792E049
:100AF000892B49F080E090E0892B29F00E947D024B
:100B000081110C9400000895FC01848DDF01A80F71
:100B1000B11DA35ABF4F2C91848D90E001968F7325
:100B20009927848FA689B7892C93A089B1898C9144
:100B300080648C93938D848D981306C00288F3890A
:100B4000E02D80818F7D80830895CF93DF93EC012A
:100B5000888D8823C9F0EA89FB89808185FD05C0DD
:100B6000A889B9898C9186FD0FC00FB607FCF5CF17
:100B7000808185FFF2CFA889B9898C9185FFEDCF5F
:100B8000CE010E948405E7CFDF91CF910895CF92E7
:100B9000DF92FF920F931F93CF93DF931F92CDB7F6
:100BA000DEB76C0181E0D60158968C9358975B961E
:100BB0009C915B975C968C915C97981307C05096BC
:100BC000ED91FC915197808185FD2EC0F601038D3A
:100BD00010E00F5F1F4F0F731127F02EF601848D69
:100BE000F81211C00FB607FCF9CFD6015096ED915F
:100BF000FC915197808185FFF1CFC60169830E94E6
:100C000084056981EBCF838DE80FF11DE35AFF4F17
:100C10006083D6015B960C935B975296ED91FC91A5
:100C20005397808180620CC0D6015696ED91FC915D
:100C3000579760835096ED91FC9151978081806425
:100C4000808381E090E00F90DF91CF911F910F9111
:100C5000FF90DF90CF900895BF92CF92DF92EF92F6
:100C6000FF92CF93DF93EC016A017B01B22EE889FA
:100C7000F98982E08083411581EE5807610571058D
:100C8000A1F060E079E08DE390E0A70196010E9479
:100C9000A2062150310941095109569547953795CA
:100CA0002795211580E1380798F0E889F9891082A5
:100CB00060E874E88EE190E0A70196010E94A20628
:100CC0002150310941095109569547953795279586
:100CD000EC85FD853083EE85FF852083188EEC89B9
:100CE000FD89B082EA89FB89808180618083EA89FD
:100CF000FB89808188608083EA89FB8980818068A4
:100D00008083EA89FB8980818F7D8083DF91CF9109
:100D1000FF90EF90DF90CF90BF9008950C94CA069B
:100D20000C94620708950E94AB040E9492060E94F0
:100D30006100C6E7D5E00E940E012097E1F30E9412
:100D40007605F9CFA1E21A2EAA1BBB1BFD010DC02F
:100D5000AA1FBB1FEE1FFF1FA217B307E407F5076B
:100D600020F0A21BB30BE40BF50B661F771F881F47
:100D7000991F1A9469F760957095809590959B01DD
:100D8000AC01BD01CF010895EE0FFF1F0590F49156
:100D9000E02D0994CF93DF938230910510F482E027
:100DA00090E0E091E201F091E30120E030E0A0E08A
:100DB000B0E0309739F14081518148175907B8F0B8
:100DC0004817590771F482819381109729F013967F
:100DD0009C938E9312972CC09093E3018093E20131
:100DE00027C02115310531F04217530718F0A9012A
:100DF000DB0101C0EF019A01BD01DF010280F38137
:100E0000E02DD7CF21153105F9F0281B390B2430FF
:100E1000310580F48A819B816115710521F0FB0108
:100E20009383828304C09093E3018093E201FE01E7
:100E3000329644C0FE01E20FF31F8193919322503A
:100E40003109398328833AC02091E0013091E101D2
:100E5000232B41F420910201309103013093E101F1
:100E60002093E0012091000130910101211531050D
:100E700041F42DB73EB74091040150910501241B68
:100E8000350BE091E001F091E101E217F307A0F4E6
:100E90002E1B3F0B2817390778F0AC014E5F5F4FD0
:100EA0002417350748F04E0F5F1F5093E101409320
:100EB000E0018193919302C0E0E0F0E0CF01DF9187
:100EC000CF910895CF93DF93009709F487C0FC0179
:100ED000329713821282C091E201D091E3012097F0
:100EE00081F420813181280F391F8091E001909198
:100EF000E1018217930779F5F093E101E093E001B6
:100F00006DC0DE0120E030E0AE17BF0750F412964E
:100F10004D915C9113979D014115510509F1DA013D
:100F2000F3CFB383A28340815181840F951F8A1729
:100F30009B0771F48D919C911197840F951F0296D8
:100F40009183808312968D919C91139793838283D2
:100F50002115310529F4F093E301E093E2013EC04D
:100F6000D9011396FC93EE9312974D915D91A40FC6
:100F7000B51FEA17FB0779F480819181840F951FD3
:100F80000296D90111969C938E9382819381139638
:100F90009C938E931297E0E0F0E08A819B8100970A
:100FA00019F0FE01EC01F9CFCE01029628813981BA
:100FB000820F931F2091E0013091E101281739073A
:100FC00069F4309729F41092E3011092E20102C013
:100FD00013821282D093E101C093E001DF91CF919F
:100FE0000895A0E0B0E0E7EFF7E00C940409EC010D
:100FF000CB01209719F40E94CA06B8C0FE01E60F83
:10100000F71F9E0122503109E217F30708F4ACC024
:10101000D9010D911C91119706171707B8F00530EB
:10102000110508F49FC0A8014450510946175707FD
:1010300008F498C002501109061B170B0193119375
:101040006D937C93CF010E9462078CC05B01A01A54
:10105000B10A4E01800E911EA091E201B091E30110
:10106000612C712C60E070E0109709F449C0A8155C
:10107000B905C9F5ED90FC901197670142E0C40EE7
:10108000D11CCA14DB0478F147018A189B0864015B
:1010900042E0C40ED11C1296BC9012971396AC91EC
:1010A000B5E0CB16D10440F0B282A3839182808256
:1010B000D9018D939C9309C00E5F1F4F0E0D1F1D0C
:1010C000F90111830083EB2DFA2F6115710531F0C1
:1010D000DB011396FC93EE93129744C0F093E30167
:1010E000E093E2013FC06D917C91119766167706FF
:1010F00008F43B01BD0112960D90BC91A02DB4CF18
:101100006091E0017091E10168157905E9F46816D4
:101110007906D0F44091000150910101411551052B
:1011200041F44DB75EB76091040170910501461B13
:10113000570BE417F507C0F4F093E101E093E001E9
:10114000F901918380830EC00E94CA067C0100973A
:1011500059F0A801BE010E94BB08CE010E9462079F
:10116000C70104C0CE0102C080E090E0CDB7DEB779
:10117000EEE00C942009FB01DC0102C001900D920D
:1011800041505040D8F70895FB01DC0101900D92C9
:101190000020E1F708954532510520F4423010F067
:1011A0000C94D608FB011082CB010895BB27FB01EC
:1011B0005527AA27880F991FAA1FA41710F0A41B50
:1011C00083955051B9F7A05DAA3308F0A95DA193AA
:1011D000009779F7B111B1931192CB010C94F008FB
:1011E000DC01FC01672F71917723E1F7329704C08E
:1011F0007C916D9370836291AE17BF07C8F3089519
:101200002F923F924F925F926F927F928F929F9216
:10121000AF92BF92CF92DF92EF92FF920F931F9304
:10122000CF93DF93CDB7DEB7CA1BDB0B0FB6F894B5
:10123000DEBF0FBECDBF09942A88398848885F84F5
:101240006E847D848C849B84AA84B984C884DF8066
:10125000EE80FD800C811B81AA81B981CE0FD11D4A
:101260000FB6F894DEBF0FBECDBFED01089510E0BC
:10127000CCE6D0E004C0FE010E94C6062296CE361F
:08128000D107C9F7F894FFCF74
:101288000000E401800041004200430053697A6590
:101298003A20000D0A006E616E00696E66006F7676
:1012A80066002E0000000000C705E7044905620536
:0412B8005405A5052F
:00000001FF
