:100000000C945D000C947A000C947A000C947A00A5
:100010000C947A000C947A000C947A000C947A0078
:100020000C947A000C947A000C947A000C947A0068
:100030000C947A000C947A000C947A000C947A0058
:100040000C94FB000C947A000C947A000C947A00C7
:100050000C947A000C947A000C947A000C947A0038
:100060000C947A000C947A00000000080002010051
:100070000003040700000000000000000102040863
:100080001020408001020408102001020408102002
:10009000040404040404040402020202020203032E
:1000A0000303030300000000250028002B000000CC
:1000B0000000240027002A00D90011241FBECFEF22
:1000C000D8E0DEBFCDBF21E0A0E0B1E001C01D92CD
:1000D000A331B207E1F710E0CAEBD0E004C02297E9
:1000E000FE010E947602C83BD107C9F70E94650253
:1000F0000C947A020C940000CF93DF93EC0161E042
:1001000088810E942E026A817B818C819D810E9460
:10011000680160E088810E942E026A817B818C8167
:100120009D81DF91CF910C946801CF93DF93EC0117
:1001300061E088810E942E026E817F818885998589
:100140000E94680160E088810E942E026A817B81A2
:100150008C819D81DF91CF910C946801089580E09E
:1001600091E00E947C0080E091E00E947C0080E0B1
:1001700091E00E947C0080E091E00E94950080E088
:1001800091E00E94950080E091E00E94950080E05F
:1001900091E00E947C0080E091E00E947C0080E081
:1001A00091E00E947C0068EB7BE080E090E00C94A2
:1001B000680189E090E0909301018093000161E083
:1001C0000E94F5018AEF90E0A0E0B0E08093020188
:1001D00090930301A0930401B093050188EE93E08E
:1001E000A0E0B0E08093060190930701A09308017E
:1001F000B093090108951F920F920FB60F92112428
:100200002F933F938F939F93AF93BF9380910B0155
:1002100090910C01A0910D01B0910E0130910A0155
:1002200023E0230F2D3720F40196A11DB11D05C039
:1002300026E8230F0296A11DB11D20930A01809389
:100240000B0190930C01A0930D01B0930E018091CE
:100250000F0190911001A0911101B091120101962E
:10026000A11DB11D80930F0190931001A093110166
:10027000B0931201BF91AF919F918F913F912F91B8
:100280000F900FBE0F901F9018953FB7F894809174
:100290000F0190911001A0911101B091120126B5AA
:1002A000A89B05C02F3F19F00196A11DB11D3FBFAE
:1002B0006627782F892F9A2F620F711D811D911D3E
:1002C00042E0660F771F881F991F4A95D1F708955E
:1002D000CF92DF92EF92FF92CF93DF936B017C017D
:1002E0000E944501EB01C114D104E104F10489F03D
:1002F0000E94CB010E9445016C1B7D0B683E734040
:1003000090F381E0C81AD108E108F108C851DC4F28
:10031000EACFDF91CF91FF90EF90DF90CF900895DB
:10032000789484B5826084BD84B5816084BD85B5D0
:10033000826085BD85B5816085BDEEE6F0E0808197
:1003400081608083E1E8F0E01082808182608083B8
:10035000808181608083E0E8F0E08081816080833B
:10036000E1EBF0E0808184608083E0EBF0E080816D
:1003700081608083EAE7F0E080818460808380810F
:1003800082608083808181608083808180688083B7
:100390001092C10008950895833081F028F48130CF
:1003A00099F08230A1F008958730A9F08830B9F033
:1003B0008430D1F4809180008F7D03C080918000D3
:1003C0008F7780938000089584B58F7702C084B5BD
:1003D0008F7D84BD08958091B0008F7703C0809198
:1003E000B0008F7D8093B0000895CF93DF9390E0AD
:1003F000FC01E458FF4F2491FC01E057FF4F84912A
:10040000882349F190E0880F991FFC01E255FF4FC6
:10041000A591B4918C559F4FFC01C591D4919FB784
:10042000611108C0F8948C91209582238C93888167
:1004300082230AC0623051F4F8948C91322F3095A7
:1004400083238C938881822B888304C0F8948C91B9
:10045000822B8C939FBFDF91CF9108950F931F93B1
:10046000CF93DF931F92CDB7DEB7282F30E0F9018D
:10047000E859FF4F8491F901E458FF4F1491F901B5
:10048000E057FF4F04910023C9F0882321F06983CE
:100490000E94CC016981E02FF0E0EE0FFF1FEC55C8
:1004A000FF4FA591B4919FB7F8948C91611103C04F
:1004B0001095812301C0812B8C939FBF0F90DF91FA
:1004C000CF911F910F91089508950E9490010E946D
:1004D00064020E94AE00C0E0D0E00E94AF0020970E
:1004E000E1F30E940000F9CFEE0FFF1F0590F49199
:0804F000E02D0994F894FFCF00
:00000001FF
