:100000000C9463000C948B000C948B000C948B006C
:100010000C948B000C948B000C948B000C948B0034
:100020000C948B000C948B000C948B000C948B0024
:100030000C948B000C948B000C948B000C948B0014
:100040000C946F020C948B000C94CA010C94FC016C
:100050000C948B000C948B000C948B000C948B00F4
:100060000C948B000C948B0000000008000201002F
:100070000003040700000000000000000102040863
:100080001020408001020408102001020408102002
:10009000040404040404040402020202020203032E
:1000A00003030303000000002300260029000000D2
:1000B0000000250028002B0000000000240027007D
:1000C0002A0093012C0211241FBECFEFD8E0DEBF1F
:1000D000CDBF11E0A0E0B1E0E0E5FBE002C005909B
:1000E0000D92A031B107D9F721E0A0E1B1E001C044
:1000F0001D92A63CB207E1F710E0C6ECD0E004C0C8
:100100002297FE010E94A205C23CD107C9F70E94B6
:1001100047050C94A6050C9400006F927F928F9275
:100120009F92AF92BF92CF92DF92EF92FF920F9386
:100130001F93CF93DF937C0100E010E087E0C82E8F
:10014000D12CAA24A394B12C862E912CC601801BFD
:10015000910BE501082E02C0CC0FDD1F0A94E2F7D7
:10016000C821D92102C0D695C7958A95E2F73701F3
:10017000600E711EF30180850E941D058C179D077E
:1001800029F06C2FF30180850E94E7040F5F1F4F59
:1001900008301105D9F6DF91CF911F910F91FF9093
:1001A000EF90DF90CF90BF90AF909F908F907F9017
:1001B0006F90089526E040E855E260E070E080E24C
:1001C00091E00C9423046CEF80E191E00E948D009B
:1001D00068EE73E080E090E00E94DC0260E680E17F
:1001E00091E00E948D0068EE73E080E090E00E9454
:1001F000DC026AED80E191E00E948D0068EE73E020
:1002000080E090E00E94DC0262EF80E191E00E94D9
:100210008D0068EE73E080E090E00E94DC0266E60C
:1002200080E191E00E948D0068EE73E080E090E054
:100230000E94DC0266EB80E191E00E948D0068EE96
:1002400073E080E090E00E94DC026EEB80E191E0E0
:100250000E948D0068EE73E080E090E00E94DC0276
:1002600060EE80E191E00E948D0068EE73E080E036
:1002700090E00E94DC026EEF80E191E00E948D0030
:1002800068EE73E080E090E00E94DC0266EF80E1BF
:1002900091E00E948D0068EE73E080E090E00E94A3
:1002A000DC026EEE80E191E00E948D0068EE73E06A
:1002B00080E090E00E94DC026EE380E191E00E9429
:1002C0008D0068EE73E080E090E00E94DC026CE953
:1002D00080E191E00E948D0068EE73E080E090E0A4
:1002E0000E94DC026AE780E191E00E948D0068EEE6
:1002F00073E080E090E00E94DC026EE980E191E032
:100300000E948D0068EE73E080E090E00E94DC02C5
:100310006EE880E191E00E948D0068EE73E080E07D
:1003200090E00C94DC02CF93DF937DE0709310019A
:100330006CE0609311015BE0509312014AE040933E
:10034000130139E03093140128E02093150197E060
:100350009093160186E080931701709318016093C3
:10036000190150931A0140931B0130931C012093F3
:100370001D0190931E0180931F01C8E1D1E061E04F
:1003800089910E94AE0481E0C032D807C1F7DF91A5
:10039000CF9108951F920F920FB60F9211242F93B1
:1003A0008F939F93EF93FF93E0913001F091310190
:1003B0008081E0913601F091370182FD12C0908179
:1003C000809139018F5F8F7320913A01821751F02C
:1003D000E0913901F0E0E05EFE4F958F80933901A6
:1003E00001C08081FF91EF919F918F912F910F908C
:1003F0000FBE0F901F9018951F920F920FB60F927D
:1004000011242F933F934F935F936F937F938F9319
:100410009F93AF93BF93EF93FF9380E291E00E948D
:100420007B03FF91EF91BF91AF919F918F917F914E
:100430006F915F914F913F912F910F900FBE0F9051
:100440001F90189580E291E00E94400321E0892BE3
:1004500009F420E0822F08951092230110922201C6
:1004600088EE93E0A0E0B0E0809324019093250112
:10047000A0932601B093270184E091E0909321019D
:100480008093200185EC90E090932D0180932C01C6
:1004900084EC90E090932F0180932E0180EC90E00B
:1004A000909331018093300181EC90E0909333017F
:1004B0008093320182EC90E0909335018093340177
:1004C00086EC90E0909337018093360110923901C9
:1004D00010923A0110923B0110923C0108951F9234
:1004E0000F920FB60F9211242F933F938F939F93E8
:1004F000AF93BF938091BE019091BF01A091C001C5
:10050000B091C1013091BD0123E0230F2D3720F4BC
:100510000196A11DB11D05C026E8230F0296A11D5D
:10052000B11D2093BD018093BE019093BF01A093A4
:10053000C001B093C1018091C2019091C301A0910B
:10054000C401B091C5010196A11DB11D8093C201E6
:100550009093C301A093C401B093C501BF91AF9123
:100560009F918F913F912F910F900FBE0F901F90F1
:1005700018953FB7F8948091C2019091C301A09162
:10058000C401B091C50126B5A89B05C02F3F19F045
:100590000196A11DB11D3FBF6627782F892F9A2F85
:1005A000620F711D811D911D42E0660F771F881F2C
:1005B000991F4A95D1F70895CF92DF92EF92FF925B
:1005C000CF93DF936B017C010E94B902EB01C11450
:1005D000D104E104F10489F00E943F030E94B902B2
:1005E0006C1B7D0B683E734090F381E0C81AD10804
:1005F000E108F108C851DC4FEACFDF91CF91FF90BD
:10060000EF90DF90CF900895789484B5826084BD98
:1006100084B5816084BD85B5826085BD85B5816006
:1006200085BDEEE6F0E0808181608083E1E8F0E066
:100630001082808182608083808181608083E0E895
:10064000F0E0808181608083E1EBF0E08081846074
:100650008083E0EBF0E0808181608083EAE7F0E076
:1006600080818460808380818260808380818160DA
:1006700080838081806880831092C10008950895EE
:10068000FC01818D228D90E0805C9F4F821B91093F
:100690008F7399270895FC01918D828D981731F001
:1006A000828DE80FF11D858D90E008958FEF9FEF0B
:1006B0000895FC01918D828D981761F0828DDF0184
:1006C000A80FB11D5D968C91928D9F5F9F73928F45
:1006D00090E008958FEF9FEF089582E292E0892BDA
:1006E00049F080E090E0892B29F00E9422028111DC
:1006F0000C9400000895FC01848DDF01A80FB11D4A
:10070000A35ABF4F2C91848D90E001968F73992747
:10071000848FA689B7892C93A089B1898C91806434
:100720008C93938D848D981306C00288F389E02DF5
:1007300080818F7D80830895CF93DF93EC01888D36
:100740008823C9F0EA89FB89808185FD05C0A889D5
:10075000B9898C9186FD0FC00FB607FCF5CF80815B
:1007600085FFF2CFA889B9898C9185FFEDCFCE01A5
:100770000E947B03E7CFDF91CF910895CF92DF9264
:10078000FF920F931F93CF93DF931F92CDB7DEB7E6
:100790006C0181E0D60158968C9358975B969C919A
:1007A0005B975C968C915C97981307C05096ED917F
:1007B000FC915197808185FD2EC0F601038D10E0DC
:1007C0000F5F1F4F0F731127F02EF601848DF81263
:1007D00011C00FB607FCF9CFD6015096ED91FC91F0
:1007E0005197808185FFF1CFC60169830E947B0309
:1007F0006981EBCF838DE80FF11DE35AFF4F6083D2
:10080000D6015B960C935B975296ED91FC915397B2
:10081000808180620CC0D6015696ED91FC9157976D
:1008200060835096ED91FC91519780818064808324
:1008300081E090E00F90DF91CF911F910F91FF9099
:10084000DF90CF900895BF92CF92DF92EF92FF9208
:10085000CF93DF93EC016A017B01B22EE889F9891D
:1008600082E08083411581EE580761057105A1F092
:1008700060E079E08DE390E0A70196010E947E059B
:1008800021503109410951095695479537952795CA
:10089000211580E1380798F0E889F989108260E82D
:1008A00074E88EE190E0A70196010E947E05215038
:1008B0003109410951095695479537952795EC859A
:1008C000FD853083EE85FF852083188EEC89FD89B8
:1008D000B082EA89FB89808180618083EA89FB8913
:1008E000808188608083EA89FB8980818068808339
:1008F000EA89FB8980818F7D8083DF91CF91FF9092
:10090000EF90DF90CF90BF900895833081F028F46E
:10091000813099F08230A1F008958730A9F08830B5
:10092000B9F08430D1F4809180008F7D03C0809134
:1009300080008F7780938000089584B58F7702C000
:1009400084B58F7D84BD08958091B0008F7703C0FA
:100950008091B0008F7D8093B0000895CF93DF9396
:1009600090E0FC01E458FF4F2491FC01E057FF4F59
:100970008491882349F190E0880F991FFC01E85485
:10098000FF4FA591B49182559F4FFC01C591D49121
:100990009FB7611108C0F8948C91209582238C93A5
:1009A000888182230AC0623051F4F8948C91322FEE
:1009B000309583238C938881822B888304C0F8949C
:1009C0008C91822B8C939FBFDF91CF9108950F93D1
:1009D0001F93CF93DF931F92CDB7DEB7282F30E060
:1009E000F901E859FF4F8491F901E458FF4F149140
:1009F000F901E057FF4F04910023C9F0882321F04B
:100A000069830E9485046981E02FF0E0EE0FFF1FEB
:100A1000E255FF4FA591B4919FB7F8948C91611165
:100A200003C01095812301C0812B8C939FBF0F9031
:100A3000DF91CF911F910F910895CF93DF93282FCE
:100A400030E0F901E859FF4F8491F901E458FF4F74
:100A5000D491F901E057FF4FC491CC2391F081115B
:100A60000E948504EC2FF0E0EE0FFF1FEC55FF4FC6
:100A7000A591B4912C912D2381E090E021F480E0A8
:100A800002C080E090E0DF91CF91089508950E9428
:100A900004030E9446050E94DA00CDE6D3E00E94DE
:100AA000E3002097E1F30E946D03F9CFCF92DF922C
:100AB000EF92FF920F931F93CF93DF937C016A0114
:100AC000EB0100E010E00C151D0571F06991D701F4
:100AD000ED91FC910190F081E02DC7010995892BE2
:100AE00019F00F5F1F4FEFCFC801DF91CF911F911A
:100AF0000F91FF90EF90DF90CF900895A1E21A2E12
:100B0000AA1BBB1BFD010DC0AA1FBB1FEE1FFF1FB1
:100B1000A217B307E407F50720F0A21BB30BE40B01
:100B2000F50B661F771F881F991F1A9469F7609548
:100B30007095809590959B01AC01BD01CF01089502
:100B4000EE0FFF1F0590F491E02D0994F894FFCF6C
:100B500000000000BE035605400359034B039C03ED
:00000001FF
